:1000000000F009EF00F01200FFFFFACFFFF5ABEFB1
:1000100012F0FFFF00EE2CF013EE56F0EE6AE55002
:10002000E150FCE1E250FAE100EE0FF0150EEE6A4D
:10003000E806FDE105EEDCF0090EEE6AE806FDE1FA
:1000400005EED9F0340EF66E010EF76E10EE03F0E9
:1000500036EC00F000EE3CF07E0EF66E000EF76E11
:1000600010EEB6F036EC00F09DEF11F00900F5CF80
:10007000EEFFE550E150FAE1E250F8E11200000134
:100080000001000100012000300040001CFEB0FF14
:100090005E011903D6048A063808E809A10B5F0D32
:1000A000220FE710AF12781443160D18D6199D1BB6
:1000B000611D221FDE2095224824F625A027452910
:1000C000E52A802C172EA72F3131B432E0FC000036
:1000D0000000000000000000000000000000000020
:1000E0000000000000000000000000000000000010
:1000F0000000000000000000000000000000000000
:100100000000000000000000000000008F0200005E
:1001100000000000000000000000000000000000DF
:1001200000000000000000000000000000007F0050
:100130000000FFFFFA052A00FFFFF29E138CF28EEB
:10014000FEEC14F05B0ECE24E8CF00F29E0ECF2022
:10015000E8CF01F200C2CEFF01C2CFFF00C2CEFF46
:1001600072EC0CF00501DD2BDDB348D00501DDB1EB
:1001700019D0C6C1B6F1C7C1B7F111EEC8F001EE92
:10018000B8F0E6CFEEFFE5CFEDFF11EECAF001EEDD
:10019000BAF0E6CFEEFFE5CFEDFF11EECCF001EEC9
:1001A000BCF047D0C6C100F0C7C101F0010100C0DA
:1001B000E8FFB62701C0E8FFB72301EEC8F0EECF95
:1001C00000F0EDCF01F001EEB8F00050EE26015046
:1001D000ED2201EECAF0EECF00F0EDCF01F001EE1E
:1001E000BAF00050EE260150ED2201EECCF0EECF39
:1001F00000F0EDCF01F001EEBCF04BD00501DDB118
:100200001DD0C6C1BEF1C7C1BFF111EEC8F001EEED
:10021000C0F0E6CFEEFFE5CFEDFF11EECAF001EE44
:10022000C2F0E6CFEEFFE5CFEDFF11EECCF001EE30
:10023000C4F0E6CFEEFFE5CFEDFF7FD7C6C100F0FB
:10024000C7C101F0010100C0E8FFBE2701C0E8FFFF
:10025000BF2301EEC8F0EECF00F0EDCF01F001EECC
:10026000C0F00050EE260150ED2201EECAF0EECFB4
:1002700000F0EDCF01F001EEC2F00050EE2601508B
:10028000ED2201EECCF0EECF00F0EDCF01F001EE6B
:10029000C4F00050EE260150ED22BEC102F0BFC1F5
:1002A00003F0B6C100F0B7C101F002500024F66EB1
:1002B00003500120F76ED890F732F632D890F7321B
:1002C000F632F6CFAEF1F7CFAFF101EEC0F0EECFE0
:1002D00002F0EDCF03F001EEB8F0EECF00F0EDCF7D
:1002E00001F002500024F66E03500120F76ED89002
:1002F000F732F632D890F732F63201EEB0F0F6CFA0
:10030000EEFFF7CFEDFF01EEC2F0EECF02F0EDCF42
:1003100003F001EEBAF0EECF00F0EDCF01F00250A5
:100320000024F66E03500120F76ED890F732F632B3
:10033000D890F732F63201EEB2F0F6CFEEFFF7CFFB
:10034000EDFF01EEC4F0EECF02F0EDCF03F001EED1
:10035000BCF0EECF00F0EDCF01F002500024F66EBD
:1003600003500120F76ED890F732F632D890F7326A
:10037000F63201EEB4F0F6CFEEFFF7CFEDFF23B487
:10038000E7D223B8EBD2020109C2E8FF0D1903E15D
:1003900008C2E8FF0C1902E1238665D0239608C243
:1003A00002F009C203F00CC200F00DC201F00150CE
:1003B000800A046E0350800A045C02E10250005C73
:1003C00002EE2AF024E21EC2E8FFEE261FC2E8FF7A
:1003D000EE2220C2E8FFEE2221C2E8FFED22ED521C
:1003E000ED522CC20CF22DC20DF20CC202F00DC265
:1003F00003F008C200F009C201F00150800A046E47
:100400000350800A045C02E10250005C23D01EC24B
:10041000E8FFEE5E1FC2E8FFEE5A20C2E8FFEE5A88
:1004200021C2E8FFED5AED52ED522CC20CF22DC262
:100430000DF208C202F009C203F00CC200F00DC2B6
:1004400001F00150800A046E0350800A045C02E14E
:100450000250005C08E208C20CF209C20DF208C2A8
:100460002CF209C22DF2FEEC14F0AEC100F0AFC1C7
:1004700001F0020100C022F201C023F2246B256BBF
:1004800022C204F023C205F024C206F025C207F000
:10049000CAC000F0CBC001F0000E01BEFF0E026E1C
:1004A000036E3CEC13F000C026F201C027F202C03C
:1004B00028F203C029F227C200F228C201F200C2CA
:1004C000F6F001C2F7F061DA00C00AF201C00BF2E7
:1004D00002010AC2E8FF0C5DE8CF44F00BC2E8FF5E
:1004E0000D59E8CF45F00501DE29030BE8CFDEF515
:1004F000DE533DE10501DF290F0BE8CFDFF5DAC55B
:10050000E8FFDFC500F0016A005E000E015A0F0E21
:100510000016016AD8900034026E0134036ECC0ECE
:100520000224E96E000E0320EA6EEECF02F0EDCF5A
:1005300003F00EC200F00FC201F00250005CE8CFE1
:1005400048F003500158E8CF49F0DFC5E8FF020D3D
:10055000CC0EF324E96E000EF420EA6E0EC2EEFF1C
:100560000FC2EDFF44C00EF245C00FF20BD044C0E5
:1005700000F045C001F0020100C0E8FF0E2701C0F5
:10058000E8FF0F23020146C022F247C023F2000E0B
:1005900023BFFF0E246F256F22C204F023C205F093
:1005A00024C206F025C207F0D9C500F0016A026A2C
:1005B000036A3CEC13F000C026F201C027F202C02F
:1005C00028F203C029F227C200F228C201F200017A
:1005D00000C2E8FF4425E8CF46F001C2E8FF45210C
:1005E000E8CF47F044C002F045C003F016C200F067
:1005F00017C201F00150800A046E0350800A045CA7
:1006000002E10250005C16E316C202F017C203F0CA
:10061000021E031E024A032A44C000F045C001F036
:100620000150800A046E0350800A045C02E102500B
:10063000005C04E200EE46F0EE6AEE6A46C002F0AC
:1006400047C003F012C200F013C201F00150800A4B
:10065000046E0350800A045C02E10250005C04E274
:1006600012C246F013C247F012C202F013C203F0E6
:10067000021E031E024A032A46C000F047C001F0D2
:100680000150800A046E0350800A045C02E10250AB
:10069000005C0CE212C200F013C201F0001E011E49
:1006A000004A012A00C046F001C047F002013CC0E8
:1006B00022F23DC023F2000E23BFFF0E246F256FF0
:1006C00022C204F023C205F024C206F025C207F0BE
:1006D00044C000F045C001F0000E01BEFF0E026EE6
:1006E000036E3CEC13F0080EE0EC14F000C02EF2A8
:1006F00001C02FF202C030F203C031F23EC022F23C
:100700003FC023F2000E23BFFF0E246F256F22C2CD
:1007100004F023C205F024C206F025C207F046C04B
:1007200000F047C001F0000E01BEFF0E026E036E26
:100730003CEC13F0080EE0EC14F000C026F201C00F
:1007400027F202C028F203C029F202EE2EF026C2E0
:10075000E8FFEE2627C2E8FFEE2228C2E8FFEE22DD
:1007600029C2E8FFED22ED52ED5240C022F241C015
:1007700023F2000E23BFFF0E246F256F22C204F068
:1007800023C205F024C206F025C207F048C000F0DD
:1007900049C001F0000E01BEFF0E026E036E3CEC7C
:1007A00013F0080EE0EC14F000C026F201C027F2AE
:1007B00002C028F203C029F202EE2EF026C2E8FFA2
:1007C000EE2627C2E8FFEE2228C2E8FFEE2229C269
:1007D000E8FFED22ED52ED5202EE31F0ED50800ACD
:1007E000800F08E1000EED5C05E1800EED5C02E19A
:1007F000000EED5C06E3316B306B7F0E2F6FFF0E4A
:1008000015D002EE31F0ED50800A810F08E1FF0EA5
:10081000ED5C05E1800EED5C02E1000EED5C07E2AF
:10082000020131693069800E2F6F000E2E6F2EC2CB
:1008300006F22FC207F20CC2F2F00DC2F3F05BDA3F
:1008400000C010F201C011F2020142C022F243C006
:1008500023F2000E23BFFF0E246F256F22C204F087
:1008600023C205F024C206F025C207F010C200F032
:1008700011C201F0000E01BEFF0E026E036E3CECD1
:1008800013F0080EE0EC14F000C026F201C027F2CD
:1008900002C028F203C029F202EE2EF026C2E8FFC1
:1008A000EE2627C2E8FFEE2228C2E8FFEE2229C288
:1008B000E8FFED22ED52ED5202EE31F0ED50800AEC
:1008C000800F08E1000EED5C05E1800EED5C02E1B9
:1008D000000EED5C06E3316B306B7F0E2F6FFF0E69
:1008E00015D002EE31F0ED50800A810F08E1FF0EC5
:1008F000ED5C05E1800EED5C02E1000EED5C07E2CF
:10090000020131693069800E2F6F000E2E6F2EC2EA
:1009100018F22FC219F218C204F219C205F202012C
:100920000551800A400F000ED8B4045D03E304694A
:100930003F0E056F020105AF04D002EE04F0EE6A2F
:10094000EE6A23BA0BD004C2D6F105C2D7F106D0A5
:1009500023BA04D001EED6F0EE6AEE6AD6C102F2F6
:10096000D7C103F29FEC0FF0D6C1F6F0D7C1F7F074
:10097000000EB4EC13F002C2D6F103C2D7F19DEF22
:1009800000F0FFFF9DEF00F0F600FFFF00EE68F0C3
:10099000EECF00F0EDCF01F000010150800A026EB1
:1009A000F751800A025C02E1F651005C16E200EEAB
:1009B00078F0EECF00F0EDCF01F00150800A026E2A
:1009C000F751800A025C02E1F651005C04E2180E65
:1009D000E8CFE0F519D0100EFBD700EE58F0EECFBF
:1009E00000F0EDCF01F000010150800A026EF751D6
:1009F000800A025C02E1F651005C02E2080EE8D7D0
:100A0000010EE6D70501E02BE0C5E8FF020D4A0E16
:100A1000F324E96E000EF420EA6EEECF00F0EDCF85
:100A200001F000010150800A026EF751800A025C59
:100A300002E1F651005C04E21F0E0501E065E2D719
:100A40000501E007E0C5E8FF020D4A0EF324E96E58
:100A5000000EF420EA6EEECF00F0EDCF01F00001C1
:100A60000050F65DE8CF22F20150F759E8CF23F2AB
:100A7000800B000ED8A4FF0EE8CF24F2E8CF25F2B9
:100A8000DBC502F0036AE0C5E8FF020D4A0EF3245D
:100A9000E96E000EF420EA6EEECFF6FFEDCFF7FF21
:100AA000F6C000F0F7C001F0F650005EF750015AB2
:100AB000D1EC14F0020104C026F205C027F2000EAA
:100AC00027BFFF0E286F296FDBC502F0036AE0C560
:100AD000E8FF020D4A0EF324E96E000EF420EA6EE0
:100AE000EECFF6FFEDCFF7FFF6C000F0F7C001F054
:100AF000F650005EF750015AD1EC14F004C022F217
:100B000005C023F2000E23BFFF0E246F256F22C203
:100B100004F023C205F024C206F025C207F0E0C5A8
:100B2000E8FF020D420EF324E96E020EF420EA6E95
:100B3000EECF00F0EDCF01F0000E01BEFF0E026E11
:100B4000036E3CEC13F000C026F201C027F202C095
:100B500028F203C029F227C2F8F028C2F9F0F8C041
:100B600000F0F9C001F000C022F201C023F2000E33
:100B700023BFFF0E246F256FF8C002F0F9C003F009
:100B8000DBC500F0016AD1EC14F004C026F205C008
:100B900027F2000E27BFFF0E286F296F100E026E7E
:100BA000036AF8C000F0F9C001F0ACEC14F004C026
:100BB00000F005C001F0E0C5E8FF020D8A0EF32445
:100BC000E96E000EF420EA6EEECF02F0EDCF03F0F6
:100BD00002500026035001221200FFFFD7D6FFFF6C
:100BE000DBC500F0020100C022F2236B246B256BF1
:100BF00002EE22F0040ED890EE36EE36EE36ED36EA
:100C0000ED52ED52E82EF7D7010EE8CFE0F520D0F7
:100C100022C202F023C203F0E0C500F0016AD1EC69
:100C200014F08AC0E8FF0424006E8BC0E8FF0520A2
:100C3000016EE0C5E8FF020D8A0EF324E96E000E96
:100C4000F420EA6E00C0EEFF01C0EDFF0501E02BCD
:100C50001F0E0501E065DCD71200FFFFC1D7FFFFC3
:100C60000501E06B3CD0E0C5E8FF020D4A0EF3241D
:100C7000E96E000EF420EA6EEECF02F0EDCF03F045
:100C8000E0C5E8FF020D4C0EF324E96E000EF420DF
:100C9000EA6EEECF00F0EDCF01F00250005C046E82
:100CA00003500158056E066A05BE06060650076E1B
:100CB000006A016A010E026E000E036A43EC14F032
:100CC000E0C5E8FF020D420EF324E96E020EF420A7
:100CD000EA6E00C0EEFF01C0EDFF0501E02B1E0E25
:100CE0000501E065C0D77EC280F27FC281F21200AA
:100CF000FFFFB6D7F200FFFF02EE3EF0EECF00F0AE
:100D0000EDCF01F00001F351800A026E0150800A1C
:100D1000025C02E10050F25D60E23AC200F03BC2C8
:100D200001F0F351800A026E0150800A025C02E178
:100D30000050F25D05E232C200F033C201F083D010
:100D400002EE3CF0EECF00F0EDCF01F00001F351E8
:100D5000800A026E0150800A025C02E10050F25DDE
:100D6000F2C0F4F01DE2F3C0F5F000EEF6F03AC286
:100D7000EEFF3BC2EDFF00EEF8F03CC2EEFF3DC2DD
:100D8000EDFF00EEFAF032C2EEFF33C2EDFF00EEEF
:100D9000FCF034C2EEFF35C2EDFF1AEC12F053D076
:100DA000F3C0F5F000EEF6F03CC2EEFF3DC2EDFF01
:100DB00000EEF8F03EC2EEFF3FC2EDFF00EEFAF0AB
:100DC00034C2EEFF35C2EDFF00EEFCF036C2EEFF9E
:100DD00037C2EDFF1AEC12F036D002EE40F0EECF43
:100DE00000F0EDCF01F00001F351800A026E0150D6
:100DF000800A025C02E10050F25D1FE2F2C0F4F0F2
:100E0000F3C0F5F000EEF6F03EC2EEFF3FC2EDFF9C
:100E100000EEF8F040C2EEFF41C2EDFF00EEFAF046
:100E200036C2EEFF37C2EDFF00EEFCF038C2EEFF37
:100E300039C2EDFF1AEC12F006D002EE38F0EECF18
:100E400000F0EDCF01F01200FFFF56D7FFFF170EA5
:100E50007EEC14F0000903E0FEEC14F0F8D721EC6E
:100E60000FF00009F4E000C1DCF536EF0BF0150ED1
:100E7000D96E010EDA6E01C1E8FF020DC60EF32431
:100E8000F66E010EF420F76ED9CFE9FFDACFEAFF54
:100E9000D94ADA2AEF6A01C1DEFFF6CFE1FFF7CFC8
:100EA000E2FFF64AF72AD9CFE9FFDACFEAFFD94ABB
:100EB000DA2AE7CFEFFFF6CFE9FFF7CFEAFFEFCF70
:100EC000DFFF040EE8CF29F1A4EC0EF0C0D7010E2D
:100ED000F66E010EF76EF6CFE9FFF7CFEAFFF64A9E
:100EE000F72AEF50020DD60EF324D96E010EF4202E
:100EF000DA6EF6CFE1FFF7CFE2FFF64AF72AD9CF55
:100F0000E9FFDACFEAFFD94ADA2AE7CFEFFFF6CFD7
:100F1000E9FFF7CFEAFFD9CFE1FFDACFE2FFD90649
:100F2000000EDA5AEFCFE7FFDECFF6F0DDCFF7F0B5
:100F300001C1E8FFB4EC13F0010EE8CF15F1E8CFE2
:100F400029F1A4EC0EF083D701C1E8FF020DAE0E2B
:100F5000F324D96E010EF420DA6E070EE8CF15F1F6
:100F600001C116F1DECF17F1DFCF18F1040EE8CF83
:100F700029F1A4EC0EF06BD7010ED96E010EDA6EDA
:100F80003C0EF66E000EF76ED9CFE1FFDACFE2FF2E
:100F9000D94ADA2AF6CFE9FFF7CFEAFFF64AF72A6D
:100FA000E7CFEFFFD9CFE1FFDACFE2FFD94ADA2A64
:100FB000F6CFE9FFF7CFEAFFE7CFEFFF3E0EF66E81
:100FC000000EF76ED9CFE1FFDACFE2FFD94ADA2A75
:100FD000F6CFE9FFF7CFEAFFF64AF72AE7CFEFFFB0
:100FE000D9CFE1FFDACFE2FFD94ADA2AF6CFE9FF1B
:100FF000F7CFEAFFE7CFEFFF400EF66E000EF76E79
:10100000D9CFE1FFDACFE2FFD94ADA2AF6CFE9FFFA
:10101000F7CFEAFFF64AF72AE7CFEFFFD9CFE1FF94
:10102000DACFE2FFD94ADA2AF6CFE9FFF7CFEAFFB3
:10103000F64AF72AE7CFEFFF420EF66E000EF76E84
:10104000D9CFE1FFDACFE2FFD94ADA2AF6CFE9FFBA
:10105000F7CFEAFFF64AF72AE7CFEFFFF6CFE9FF2F
:10106000F7CFEAFFDFCFEFFF020EE8CF15F1010E59
:10107000E8CF29F1A4EC0EF0EAD6150ED96E010ED8
:10108000DA6ED9CFE9FFDACFEAFFD94ADA2A030EBE
:10109000EF6E44C0DEFF45C0DEFF46C0DEFF47C046
:1010A000DEFF48C0DEFF49C0DEFF06C2DEFF07C22A
:1010B000DEFF10C2DEFF11C2DEFF18C2DEFF19C262
:1010C000DFFF0D0EE8CF29F1A4EC0EF0C0D601C170
:1010D000E8FF100D4A0EF3240001F66F000EF42015
:1010E000F76F020EF86F010EF96F100EFA6FF4EC45
:1010F00011F001C1E8FF030A03E12FEC06F0238C95
:10110000040EE8CF15F1010EE8CF29F1A4EC0EF0A2
:101110009ED6010ED96E010EDA6E8A0EF66E000EA4
:10112000F76ED9CFE1FFDACFE2FFD94ADA2AF6CF5C
:10113000E9FFF7CFEAFFF64AF72AE7CFEFFFD9CF6B
:10114000E1FFDACFE2FFD94ADA2AF6CFE9FFF7CF9B
:10115000EAFFE7CFEFFFDB0EE16E050EE26EDFCFB9
:10116000E7FFEFEC05F0238E050EE8CF15F1010E39
:10117000E8CF29F1A4EC0EF06AD6060EE8CF15F1FF
:10118000010EF66E010EF76EF40ED96E000EDA6ED9
:10119000F6CFE1FFF7CFE2FFF64AF72AD9CFE9FF12
:1011A000DACFEAFFD94ADA2AE7CFEFFFF6CFE9FF35
:1011B000F7CFEAFFEFCFDFFFF4C0F6F0F5C0F7F0AE
:1011C000C5EC04F000C0F2F001C0F3F0F20EF66ED0
:1011D000000EF76E160ED96E010EDA6EF6CFE1FF35
:1011E000F7CFE2FFF64AF72AD9CFE9FFDACFEAFFD5
:1011F000D94ADA2AE7CFEFFFF6CFE9FFF7CFEAFFC8
:10120000EFCFDFFF030EE8CF29F1A4EC0EF01FD6DD
:10121000150ED96E010EDA6ED9CFE9FFDACFEAFFEB
:10122000D94ADA2A080EEF6EAEC1DEFF11EEAFF03A
:10123000D9CFE9FFDACFEAFFD94ADA2AE7CFEFFFC1
:1012400011EEB0F0D9CFE9FFDACFEAFFD94ADA2AB6
:10125000E7CFEFFF11EEB1F0D9CFE9FFDACFEAFF28
:10126000D94ADA2AE7CFEFFF11EEB2F0D9CFE9FF82
:10127000DACFEAFFD94ADA2AE7CFEFFF11EEB3F06F
:10128000D9CFE9FFDACFEAFFD94ADA2AE7CFEFFF71
:101290000CC2DEFF0DC2DFFF090EE8CF29F1A4EC7E
:1012A0000EF0D5D5010ED96E010EDA6EDECF08F242
:1012B000DECF09F2DECF1EF2DECF1FF2DECF20F24C
:1012C000DFCF21F22394090EE8CF15F1010EE8CF0C
:1012D00029F1A4EC0EF0BBD5010ED96E010EDA6E29
:1012E000DECFDAF5DECFD9F5DECF12F2DECF13F2A4
:1012F000DECF16F2DFCF17F20A0EE8CF15F1010E9E
:10130000E8CF29F1A4EC0EF0A2D501EE01F0EF50E8
:1013100002E1238813D001C100F0000402E1239808
:101320000DD001C1E8FF020A09E1238402EE0CF0AE
:10133000EE6AEE6A02EE2CF0EE6AEE6A0B0EE8CF71
:1013400015F1010EE8CF29F1A4EC0EF0239A7FD518
:10135000010ED96E010EDA6EDECF3AF2D9CFE1FF7F
:10136000DACFE2FFD94ADA2A02EE3BF0E7CFEFFF0D
:10137000D9CFE1FFDACFE2FFD94ADA2A02EE3CF018
:10138000E7CFEFFFD9CFE1FFDACFE2FFD94ADA2A80
:1013900002EE3DF0E7CFEFFFD9CFE1FFDACFE2FF7A
:1013A000D94ADA2A02EE3EF0E7CFEFFFD9CFE1FFCC
:1013B000DACFE2FFD94ADA2A02EE3FF0E7CFEFFFB9
:1013C000D9CFE1FFDACFE2FFD94ADA2A02EE40F0C4
:1013D000E7CFEFFFD9CFE1FFDACFE2FFD94ADA2A30
:1013E00002EE41F0E7CFEFFFDECF32F2D9CFE1FFDF
:1013F000DACFE2FFD94ADA2A02EE33F0E7CFEFFF85
:10140000D9CFE1FFDACFE2FFD94ADA2A02EE34F08F
:10141000E7CFEFFFD9CFE1FFDACFE2FFD94ADA2AEF
:1014200002EE35F0E7CFEFFFD9CFE1FFDACFE2FFF1
:10143000D94ADA2A02EE36F0E7CFEFFFD9CFE1FF43
:10144000DACFE2FFD94ADA2A02EE37F0E7CFEFFF30
:10145000D9CFE1FFDACFE2FFD94ADA2A02EE38F03B
:10146000E7CFEFFF02EE39F0DFCFEFFF0C0EE8CF52
:1014700015F1010EE8CF29F1A4EC0EF0E8D40D0E21
:10148000E8CF15F101EEB4F0EFCF16F101EEB5F0B3
:10149000EFCF17F1030EE8CF29F1A4EC0EF0D7D46B
:1014A00001C1E8FF020DD60EF324D96E010EF4201F
:1014B000DA6E0E0EE8CF15F101C116F1DECF17F18D
:1014C000DFCF18F1040EE8CF29F1A4EC0EF0BFD461
:1014D00001EE01F0EF5002E1239A01D0238A0F0EB2
:1014E000E8CF15F1010EE8CF29F1A4EC0EF0AFD44E
:1014F00001C130F002C131F003C136F004C137F050
:1015000005C134F006C135F007C132F008C133F02F
:10151000100EE8CF15F1010EE8CF29F1A4EC0EF082
:1015200096D40501E16B0501E46B0501E36B110E37
:10153000E8CF15F1010EE8CF29F1A4EC0EF087D425
:1015400014C1E8FF030A0FE101C1DAFF02C1D9FFAC
:10155000F00EE8CF15F1DFCF16F1020EE8CF29F13A
:10156000A4EC0EF074D4E10EE8CF15F1010EE8CF33
:1015700029F1A4EC0EF06BD414C1E8FF040A12E1C7
:1015800001C1E2FF02C1E1FF03C1E7FFF10EE8CFB5
:1015900015F1A00EE8CF16F1020EE8CF29F1A4EC68
:1015A0000EF055D4E10EE8CF15F1010EE8CF29F188
:1015B000A4EC0EF04CD414C1E8FF020A06E101C10C
:1015C000E8FF550A02E1FF0042D4E10EE8CF15F131
:1015D000010EE8CF29F1A4EC0EF039D4FE0EE8CFCD
:1015E00015F123BC23AE02D0010E01D0000EE8CFCE
:1015F00016F1000E23B8010E23B4020923B6040924
:10160000E8CF17F1E1C500F0000E026A0501E263C0
:10161000022A030E016ED8900236012EFCD7E3C5D4
:1016200001F0020E036ED8900136032EFCD7E4C5FC
:1016300003F0D8900334046E0112025001120050DE
:101640000110E8CF18F1040EE8CF29F1A4EC0EF058
:1016500027EF07F0E00EE8CF15F100C116F1020EFA
:10166000E8CF29F1A4EC0EF027EF07F0DCC5E8FF86
:10167000000A02E137EF07F0010A01E128D4030A6A
:1016800001E17AD4010A01E1F8D4070A01E11FD58A
:10169000010A01E13ED5030A01E16FD5010A01E12A
:1016A00053D40F0A01E1B4D5010A01E1FBD5030AC5
:1016B00001E112D6010A01E128D6070A01E148D664
:1016C000010A01E1DCD6030A01E1EAD6010A01E1DF
:1016D000FFD61F0A01E10CD7010A01E122D7E10A76
:1016E00001E12ED7010A01E147D70C0A01E163D7D6
:1016F000030A01E173D7AED7FFFF27EF07F0FFFF23
:10170000E20E09D0FFFFFCD7FFFFE30E04D0FFFF7E
:10171000FCD7FFFFE40EE8CF15F1010EE8CF29F169
:10172000A4EF0EF0FFFFF6D7FFFFFF0EE8CF15F195
:10173000D0B8D0A607D0D0B4D0B204D0D0B002D0A8
:10174000010E28D0D0A8D0A205D0FCAEFCBC02D09F
:10175000030E20D0FCBE02D0FCAC02D0040E1AD086
:10176000D0A6D0A402D0050E15D0D0B8D0A207D0F4
:10177000D0B0FCBE04D0FCBC02D0020E0BD0D0B85E
:10178000D0A607D0D0B4D0A204D0D0B002D0060EDC
:1017900001D0070EE8CF16F1A00EE8CF17F1030E27
:1017A000E8CF29F1A4EC0EF0D088D082D080FC9E46
:1017B000FC9C1200FFFFB9D7FFFF8292829000F0DD
:1017C000828081A0FED7F10EC96EC790C7A0FED758
:1017D000C9CFC7F1C96AC790C7A0FED7C9CFC6F1A4
:1017E000829000F0828081A0FED7E50EC96EC7907E
:1017F000C7A0FED7C9CFC9F1C96AC790C7A0FED795
:10180000C9CFC8F1829000F0828081A0FED7F50E8A
:10181000C96EC790C7A0FED7C9CFCBF1C96AC79020
:10182000C7A0FED7C9CFCAF1829000F0828081A004
:10183000FED7E90EC96EC790C7A0FED7C9CFCDF1BC
:10184000C96AC790C7A0FED7C9CFCCF1829000F07B
:10185000828081A0FED7F90EC96EC790C7A0FED7BF
:10186000C9CFCFF1C96AC790C7A0FED7C9CFCEF103
:10187000829000F0828081A0FED7ED0EC96EC790E5
:10188000C7A0FED7C9CFD1F1C96AC790C7A0FED7FC
:10189000C9CFD0F1829000F0828081A0FED7FD0EEA
:1018A000C96EC790C7A0FED7C9CFD3F1C96AC79088
:1018B000C7A0FED7C9CFD2F1829000F0828081A06C
:1018C000FED7E10EC96EC790C7A0FED7C9CFD5F12C
:1018D000C96AC790C7A0FED7C9CFD4F182821200CF
:1018E000FFFF6BD7FFFF8292829000F0828081A081
:1018F000FED7E10EC96EC790C7A0FED7C9CFADF124
:10190000C96AC790C7A0FED7C9CFACF1829000F0DA
:101910008280ACC1C6F1ADC1C7F181A0FED7E10E96
:10192000C96EC790C7A0FED7C9CFADF1C96AC7902D
:10193000C7A0FED7C9CFACF1829000F08280ACC1C5
:1019400000F0ADC101F0010100C0E8FFC62701C0F1
:10195000E8FFC72381A0FED7E10EC96EC790C7A0DC
:10196000FED7C9CFADF1C96AC790C7A0FED7C9CF0E
:10197000ACF1829000F08280ACC100F0ADC101F00A
:10198000010100C0E8FFC62701C0E8FFC72381A00E
:10199000FED7F10EC96EC790C7A0FED7C9CFADF173
:1019A000C96AC790C7A0FED7C9CFACF1829000F03A
:1019B0008280ACC100F0ADC101F0010100C0E8FFC0
:1019C000C62701C0E8FFC723020E006E01EEC6F075
:1019D000002804D0D890EC32ED52EF32E82EFAD73E
:1019E00081A0FED7F10EC96EC790C7A0FED7C9CFA0
:1019F000ADF1C96AC790C7A0FED7C9CFACF182903C
:101A000000F08280ACC1C8F1ADC1C9F181A0FED7A0
:101A1000F10EC96EC790C7A0FED7C9CFADF1C96A94
:101A2000C790C7A0FED7C9CFACF1829000F08280EA
:101A3000ACC100F0ADC101F0010100C0E8FFC82752
:101A400001C0E8FFC92381A0FED7F10EC96EC7907F
:101A5000C7A0FED7C9CFADF1C96AC790C7A0FED74E
:101A6000C9CFACF1829000F08280ACC100F0ADC172
:101A700001F0010100C0E8FFC82701C0E8FFC92349
:101A800081A0FED7E50EC96EC790C7A0FED7C9CF0B
:101A9000ADF1C96AC790C7A0FED7C9CFACF182909B
:101AA00000F08280ACC100F0ADC101F0010100C0C6
:101AB000E8FFC82701C0E8FFC92301EEC8F0EECF58
:101AC00000F0EDCF01F0D89001320032D890013211
:101AD000003200C0C8F101C0C9F181A0FED7E50EF7
:101AE000C96EC790C7A0FED7C9CFADF1C96AC7906C
:101AF000C7A0FED7C9CFACF1829000F08280ACC104
:101B0000CAF1ADC1CBF181A0FED7E50EC96EC79079
:101B1000C7A0FED7C9CFADF1C96AC790C7A0FED78D
:101B2000C9CFACF1829000F08280ACC100F0ADC1B1
:101B300001F0010100C0E8FFCA2701C0E8FFCB2384
:101B400081A0FED7E50EC96EC790C7A0FED7C9CF4A
:101B5000ADF1C96AC790C7A0FED7C9CFACF18290DA
:101B600000F08280ACC100F0ADC101F0010100C005
:101B7000E8FFCA2701C0E8FFCB2381A0FED7F50EFE
:101B8000C96EC790C7A0FED7C9CFADF1C96AC790CB
:101B9000C7A0FED7C9CFACF1829000F08280ACC163
:101BA00000F0ADC101F0010100C0E8FFCA2701C08B
:101BB000E8FFCB2301EECAF0EECF00F0EDCF01F04D
:101BC000D89001320032D8900132003200C0CAF100
:101BD00001C0CBF181A0FED7F50EC96EC790C7A09A
:101BE000FED7C9CFADF1C96AC790C7A0FED7C9CF8C
:101BF000ACF1829000F08280ACC1CCF1ADC1CDF1EE
:101C000081A0FED7F50EC96EC790C7A0FED7C9CF79
:101C1000ADF1C96AC790C7A0FED7C9CFACF1829019
:101C200000F08280ACC100F0ADC101F0010100C044
:101C3000E8FFCC2701C0E8FFCD2381A0FED7F50E39
:101C4000C96EC790C7A0FED7C9CFADF1C96AC7900A
:101C5000C7A0FED7C9CFACF1829000F08280ACC1A2
:101C600000F0ADC101F0010100C0E8FFCC2701C0C8
:101C7000E8FFCD2381A0FED7E10EC96EC790C7A0B3
:101C8000FED7C9CFADF1C96AC790C7A0FED7C9CFEB
:101C9000ACF1ACC100F0ADC101F0010100C0E8FF42
:101CA000CC2701C0E8FFCD2301EECCF0EECF00F051
:101CB000EDCF01F0D89001320032D89001320032DD
:101CC00000C0CCF101C0CDF182821200FFFF0BD623
:101CD000FFFF0101AA297F0BD96ED950AB6303D056
:101CE0007FEC0BF015D0AE50E16EAAC1E8FF01EE1B
:101CF0002AF0E926000EEA22E1CFEFFFD9CFAAF1C0
:101D0000E150AB0A05E10001FE69170E97EC14F0F3
:101D10001200FFFFDED7FFFF80C3E8FF03018163EE
:101D200002D09D980ED081C3E8FF03EE00F0E926B3
:101D3000000EEA22EF50AD6E030181297F0BE8CF40
:101D400081F31200FFFFE8D7FFFFD96A0301802962
:101D50007F0BE16EE1500301816301D06FD080C33E
:101D6000E8FF03EE00F0E926000EEA22AA0EEF6E6D
:101D7000E1CF80F3030180297F0BF36EF350030161
:101D8000816301D05BD0D95001EE15F0E926000E39
:101D9000EA22EF50E16E23A00DD080C3E8FF03EEEE
:101DA00000F0E926000EEA22E150560FEF6ED92A24
:101DB00023901ED0E150AA0A06E0E150AC0A03E0ED
:101DC000E150AB0A0BE180C3E8FF03EE00F0E92627
:101DD000000EEA22AC0EEF6E23800AD080C3E8FF2B
:101DE00003EE00F0E926000EEA22E1CFEFFFD92A48
:101DF000F3CF80F3D95001012963BCD703018029B7
:101E00007F0BD96ED9500301816301D017D080C3F5
:101E1000E8FF03EE00F0E926000EEA22AB0EEF6EBB
:101E2000D9CF80F39DB80AD09EA807D0AA0EAD6E78
:101E3000030181297F0BE8CF81F39D881200FFFF0A
:101E400084D7FFFFABC1E8FF01EE2AF0E926000EC0
:101E5000EA22EF50D96E0101AB297F0BE8CFABF13D
:101E6000D950AA0A04E089EC0BF04ED82ED001011B
:101E7000146BABC1E8FF01EE2AF0E926000EEA225E
:101E8000EF50D96E0101AB297F0BE8CFABF1D950F0
:101E9000AC0A02E12382EDD7D950AA0A04E189EC09
:101EA0000BF032D812D0D950AB0A09E101EE14F090
:101EB000EF5003E189EC0BF008D0010E22D014C1E1
:101EC000E8FF140A04E189EC0BF0000E1AD023B2EB
:101ED0000CD014C1E8FF01EE00F0E926000EEA2262
:101EE000D9CFEFFF0101142BC4D714C1E8FF01EED5
:101EF00000F0E926000EEA22D950AA0FEF6E2392D5
:101F0000F1D71200FFFF9ED7FFFF11D0ABC1E8FF52
:101F100001EE2AF0E926000EEA22EF50D96E010107
:101F2000AB297F0BE8CFABF1D950AB0A05E0AAC1D2
:101F3000E8FF0101AB63EAD71200FFFFE6D7FFFF1E
:101F400001EEB0F0EECF02F0EDCF03F030C000F0C4
:101F500031C001F00350015C02E10250005C03E279
:101F6000010EE8CFE1F5D6C102F0D7C103F0F0C011
:101F700000F0F1C001F00350015C02E10250005C8E
:101F80001DE232C000F033C001F0D8900130036E82
:101F90000030026E01EEB0F0EECF00F0EDCF01F0B8
:101FA0000150035C02E10050025C08E2640EE8CFDD
:101FB000E2F5F0C0D6F1F1C0D7F104D00501E2534B
:101FC00001E0E20700EEF3F0D6C1EEFFD7C1EDFF6E
:101FD0000001F26B01EEB0F0EE50ED101FE001EEEB
:101FE000B0F0EECF00F0EDCF01F00050046E0150E4
:101FF000056E066A076AF2C000F0F3C001F0F4C093
:1020000002F0F5C003F0E1EC12F000C038F001C0BE
:1020100039F002C03AF003C03BF009D0FF0EE8CF20
:1020200038F0E8CF39F0E8CF3AF0E8CF3BF0F40EE3
:10203000046E056A066A076AECC000F0EDC001F0A4
:10204000EEC002F0EFC003F03CEC13F000C0F6F07D
:1020500001C0F7F002C0F8F003C0F9F00C0E046EF6
:10206000056A066A076A38C000F039C001F03AC054
:1020700002F03BC003F03CEC13F00001F6510024E9
:10208000F26FF7510120F36FF8510220F46FF9510C
:102090000320F56F0001F3C0ECF0F4C0EDF0EE6B3F
:1020A000EF6B020132C022F233C023F2246B256BA6
:1020B000ECC004F0EDC005F0EEC006F0EFC007F094
:1020C00022C200F023C201F024C202F025C203F0B4
:1020D0003CEC13F000C026F201C027F202C028F247
:1020E00003C029F227C2F0F028C2F1F001EEB2F0ED
:1020F000EECF02F0EDCF03F036C000F037C001F0B4
:102100000350015C02E10250005C03E2010EE8CFE3
:10211000E4F501EEB0F0EECF00F0EDCF01F00201FA
:1021200000C022F201C023F2246B256B22C204F00E
:1021300023C205F024C206F025C207F001EEB2F07A
:10214000EECF00F0EDCF01F0026A036A3CEC13F031
:1021500000C026F201C027F202C028F203C029F213
:1021600028C22EF029C22FF02EC002F02FC003F09B
:1021700034C000F035C001F00350015C02E10250B0
:10218000005C03E2010EE8CFE3F5E3C500F0E4C52F
:10219000E8FF0501E111016E001004E001EED6F048
:1021A000EE6AEE6A1200FFFFCBD61350D8B414507B
:1021B000D8B4AFD0F29EF29C1350700BD8B46ED04E
:1021C0000F50030FE96EEA6A1350700BEF6E0F5059
:1021D000D96E0F50116203D00F6A13840AD00F50CA
:1021E000E16EE26A1150E96EEA6AE7CFEFFF115043
:1021F0000F6E13A835D0F36A165008D0F450155E50
:10220000E150F36EF350E96EEA6AEF50E16EE1508F
:10221000D8B410D0E150040FE96EEA6AEF50F46EC2
:102220001550F45CD8A0EAD7E150040FE96EEA6AD1
:102230001550EF5ED950040FE96EEA6A15C0EFFF42
:10224000F350D8B406D0F350E96EEA6AD9CFEFFF65
:1022500002D0D950166ED950E96EEA6AE1CFEFFF8D
:1022600013AA19D01050E96EEA6AEF50D8A402D030
:10227000105004D01028E96EEA6AEF50E96EEA6A5D
:10228000D9CFEFFF1028E96EEA6AD9CFEFFFD95016
:10229000E96EEA6AEF6A106A8F0E1316F28EF28CFC
:1022A00014D014061650040FE96EEA6AEF060AD03D
:1022B0001650E0EC13F0166E1650D8B406D0040F8A
:1022C000E96EEA6AEF50D8B4F3D71450D8B404D00A
:1022D0001650D8A4E6D7146A1350D8B41AD0F29E78
:1022E000F29C13B209D00CD01250E0EC13F0126E35
:1022F000F28EF28CF29EF29C1250D8A4F5D7139273
:10230000F28EF28C13A405D00F50D8B403EF00F076
:1023100013940F50116E1150E96EEA6AEF500F6E70
:102320000F28E96EEA6AEECF00F0EDCF01F000C0B1
:10233000F6FF01C0F7FFF4EF14F0FFFF2AD8CCEC52
:1023400013F0EFEC05F02FEC06F0138400014C0EB7
:10235000F26F0E0EF36F1A0EF46F2FEC14F00001F3
:10236000380EF26F010EF36F1E0EF46F2FEC14F0A7
:10237000196AF90ECB6E050ECA6E94EC0BF09EA096
:1023800004D09E901E0E61EC14F00400D5EC10F009
:10239000F6D7FFFF2F0E926EEB0E936E900E946E9B
:1023A000956A070E966EC00EF26E220E9D6EA06AA2
:1023B000A36A240EAC6E900EAB6E2A0EAF6E910E19
:1023C000CD6ED80ECF6EEF0ECE6EC00EC76E300E35
:1023D000C66E82828280828480982398238423968A
:1023E0001200FFFFD7D7F600FFFF0001FA511EE0F1
:1023F000E9CFF6FFEACFF7FFE1CFF3FFE2CFF4FF3B
:10240000F8C0E9FFF9C0EAFFF6C0E1FFF7C0E2FF5C
:10241000FAC0E8FFEECFE6FFE82CFCD7F6CFE9FFE5
:10242000F7CFEAFFF3CFE1FFF4CFE2FF1200FFFFA7
:10243000DCD7F400FFFFD96AF6C000F0F7C001F066
:102440000001F8510026F951012201340130F46EE7
:102450000030F36EF551800A006EF450800A005C83
:1024600002E1F350F45D12E2F3CFF8F0F4CFF9F0AB
:10247000FAC000F0FBC001F0FC510026FD51012222
:1024800001340130FD6F0030FC6F12D0F3CFF6F055
:10249000F4CFF7F0FAC000F0FBC001F00001FC51EE
:1024A0000026FD51012201340130FB6F0030FA6F2C
:1024B000D92A080ED964C0D7FAC000F0FBC001F0D9
:1024C0001200FFFFB8D7FFFF9EBA68EC0EF09EB86F
:1024D0009DA802D08BEC0EF09EA204D09E921650C6
:1024E000D8A4142AE5C5F3FFE6C5F4FFE7C5F5FF58
:1024F000E8C5F6FFE9C5F7FFEAC500F0EBC501F056
:10250000ECC502F0EDC503F0EEC504F0EFC505F033
:10251000F0C506F0F1C507F0F2C508F0F3C509F003
:10252000F4C50AF0F5C50BF0F6C50CF0F7C50DF0D3
:10253000F8C50EF0F9C5DAFFFAC5D9FFFBC5E2FF11
:10254000FCC5E1FFFDC5EAFFFEC5E9FFFFC5FAFFD7
:102550001100FFFFB9D7FFFFE9CFFEF5EACFFDF588
:10256000E1CFFCF5E2CFFBF5D9CFFAF5DACFF9F5FB
:102570000EC0F8F50DC0F7F50CC0F6F50BC0F5F57B
:102580000AC0F4F509C0F3F508C0F2F507C0F1F58B
:1025900006C0F0F505C0EFF504C0EEF503C0EDF59B
:1025A00002C0ECF501C0EBF500C0EAF5F7CFE9F5A4
:1025B000F6CFE8F5F5CFE7F5F4CFE6F5F3CFE5F59F
:1025C00082D7E96AEA6A0C6A086A096A0A6A0B6AC7
:1025D000045005100610071006E1046A056A066A31
:1025E000076AC1EF14F0C00E0C1606D0D89004365E
:1025F0000536063607360C2A07AEF8D70C2AD890CF
:10260000083609360A360B360750035C08E10650D7
:10261000025C05E10550015C02E10450005C09E345
:1026200008800450005E0550015A0650025A0750B7
:10263000035AD89007320632053204320C060C5089
:102640003F0BDDE10CBCEAEC14F00050046E0150CD
:10265000056E0250066E0350076E0850006E09505A
:10266000016E0A50026E0B50036E0CAEC5EF14F0F3
:10267000EAEC14F0C5EF14F0E96AEA6A0050086E5B
:102680000150096E02500A6E03500B6E026A036A13
:1026900008500402F3CF00F0F4CF01F00850050217
:1026A000F3500126F450022209500402F35001268F
:1026B000F4500222D8B0032A08500602F350022632
:1026C000F450032209500502F3500226F45003226D
:1026D0000A500402F3500226F45003220850070265
:1026E000F350032609500602F35003260A50050250
:1026F000F35003260B500402F3500326C5EF14F0E9
:10270000066A046A056A0250031003E1006A016A5E
:10271000000C1F0E0612D890062A02360336FCE380
:10272000033202320250005C0350015804E3016E90
:102730000250005ED88004360536062E06BAF0D761
:1027400006AE05D0041E042AD8B40506051E0450A2
:10275000026E0550036E06AC000C001E002AD8B4B1
:102760000106011E000CF600FFFF8294C96E0001F5
:10277000F751C009D96EC790C7A0FED7D9CFC9FFFE
:10278000C790C7A0FED7F6C0C9FFC790C7A0FED7A5
:1027900082841200FFFFE9D7FFFF82940C0EC96EFE
:1027A000C790C7A0FED71D0EC96EC790C7A0FED7A1
:1027B000C96AC790C7A0FED782841200FFFFEDD779
:1027C000D96ED950E96EEA6AEF50F36ED950D8B499
:1027D000000CD950030FE96EEA6A8F0EEF160F5006
:1027E000D8B408D0E16EE26AD950E96EEA6AE7CF60
:1027F000EFFF02D0D9500F6E0F50E96EEA6AD9CFC1
:10280000EFFFF3501200F36EF350E96EEA6AEF50F7
:10281000D96ED950D8A407D01050F3621200106AB4
:102820008F0E13161200D950E16EE26AF350E96E72
:10283000EA6AE7CFEFFFD950E96EEA6A12C0EFFF0C
:10284000D950126E13821200D96ED950E96EEA6A1D
:1028500012C0EFFFD950126E13821200F200F29EE6
:10286000F29C0001F429E96EEA6AF2C0EEFFF3C0BF
:10287000EDFFF451030FE96EEA6AEF6AF451E4DF09
:10288000F28EF28C1200E96AEA6A0C6A03AE04D096
:10289000EAEC14F00C8C0C8E0750800B0C1A07AE6F
:1028A000E4EF12F0D890FF0E0406041ED8A005260F
:1028B000051ED8A00626061ED8A00726071EE4EF90
:1028C00012F00001F26FF29EF29CF251030FE96EDA
:1028D000EA6AEF50006E00BC03D0F28EF28C010C5D
:1028E0000001F25124EC14F00001F251030FE96EE3
:1028F000EA6ABF0EEF16F28EF28C000CD96EF29ED1
:10290000F29CD950020FE96EEA6AEF50D8B408D0B1
:10291000D950020FE96EEA6AEF06F28EF28C000CD3
:10292000D950106E138AF28EF28C010CFE00D96E13
:10293000D950020FE96EEA6AEF500001FE19D8B4CF
:10294000010CD950020FE96EEA6AEF2AD950FF6FE5
:10295000FF5103EC14F0000C066A01AE06D0001E15
:10296000004A0106011E068C068E0350800B061AD3
:1029700003AE81EF13F0021E024A0306031E81EF2D
:1029800013F0036A026A016A006AE950EA1008E07B
:1029900003C0EDFF02C0EDFF01C0EDFF00C0EFFF7F
:1029A000000C02500002F3CF04F0F4CF05F0025007
:1029B0000102F350052603500002F35005261200D1
:1029C000046E042A044E000C033403320232013236
:1029D0000032F8D7001E011E021E031E000E002A40
:1029E0000122022203221200FA6E0500F850FF6E47
:1029F000F750FE6EF650FD6EFA5012000F28E96E89
:0E2A0000EA6AFDCFEEFFFECFEDFFFC061200EE
:020000040030CA
:04000000FFFEF4FF0C
:02000600FBFFFE
:00000001FF
